:020000040000FA
:100000000040002095A80100D1A80100D3A801005C
:1000100000000000000000000000000000000000E0
:10002000000000000000000000000000D5A8010052
:100030000000000000000000D7A80100D9A80100BE
:10004000DBA80100E5680100DDAE0100DBA80100CE
:10005000DBA801000000000095A90100DBA8010059
:10006000DD2401004DB4010051AD0100DBA8010009
:10007000DBA80100DBA80100DBA80100DBA8010070
:10008000DBA80100DBA80100DBA80100DBA8010060
:10009000DBA801001DA50100E9A50100192601004A
:1000A00029260100DBA8010000000000000000007C
:1000B0000000000000000000000000000000000040
:1000C00010B5064C2378002B07D1054B002B02D02E
:1000D000044800E000BF0123237010BD2001002070
:1000E00000000000C8A70300044B10B5002B03D08C
:1000F0000349044800E000BF10BDC04600000000F6
:1001000024010020C8A70300164B002B00D1144B7C
:100110009D46402292029A1A924600218B460F4633
:100120001348144A121A29F0DAFF0F4B002B00D0A3
:1001300098470E4B002B00D0984700200021040068
:100140000D000D48002802D00C4800E000BF21F04F
:10015000EFFB2000290029F031FD21F035FBC046DE
:100160000000080000400020000000000000000027
:1001700018010020E82F002000000000000000000F
:10018000F0B50F00496885B005001600002901D0C0
:10019000002A05D13900280022F02CFB05B0F0BD63
:1001A0000F321309C918009322F095FA0F22A8689C
:1001B000B9687C68324000D11032009B1E19234B75
:1001C000F3185B00C018214B0290E3185B00CB18BA
:1001D000019010209C4621000023801A002921D183
:1001E000C3401A48029A84466400141B2380009B73
:1001F0005B00E41A009B023463445A00200029F09B
:100200006EFF002E04D07300023BE35A002B1BD07C
:1002100001216E603B78DB07DA0F2B788B431343A9
:100220002B70BBE762461288013913431A00C240A3
:100230000393019B1A80019A039B023A01920222C6
:1002400052421B049444C9E7013EDAE7FFFFFF7FF7
:10025000F0B54B681500526889B006000C00934257
:1002600001D22C000D000121227863680A4201D1DD
:100270002A781140C918300022F02DFAB36822788C
:100280000193A36817000293636829789C46AB68C2
:100290004F400393012318001F408B43069363468E
:1002A000904302006046591E019B04936B681B1A21
:1002B00007934B1C18D163465900019B5918002F16
:1002C00002D001230B800231019822F087F901212D
:1002D000706022782B7853403278DB078A43DB0F3B
:1002E0001343337009B0F0BD029B13481B881B18E1
:1002F0009B180593079B5B188B421AD8039B039AA4
:100300001B8802321B180392069A01399B18059A22
:100310005A4092B21B0CD7190693049A059B17807A
:100320001A0C049B3F0C02330493029B023302938A
:10033000BFE7014BE8E7C046FFFF0000F0B506004D
:1003400095B0069353680D00591C0492009322F057
:10035000C2F9049B00215B68B0685A1C52000093EC
:1003600029F0BDFE00237360049B28005B68591CC4
:10037000009322F0B0F90499280022F03BFAAB6810
:100380006F680193069B9B680393069B5B680293CF
:10039000B3680793029BBB422DD82ED3039A390032
:1003A000019822F0DBF9002823D10123079A686025
:1003B00013807360049B1A78069B1B785A400123B4
:1003C0001A4214D03278134333706B68002B0ED06E
:1003D000012111A8494222F02CFA11AA3100300063
:1003E00022F02EFC069A2900280022F029FC15B0E4
:1003F000F0BD002801DA0023DBE7824A029B9B184C
:100400005B009C460022039B634405931B8800927B
:100410001AB2002A63DA0022019B7C001A537B1C6B
:10042000102709936B60019BA01C00991B1808936F
:10043000791A019B0A9108998B4256D3059B009A21
:100440001B8893400893029B012B0AD91022039B1F
:1004500000996344023B1B88521AD340089A1A43FE
:100460000892019B029A1C19099B9B1A654A7360AA
:100470009B18079A5B00D3180A93634602330E93C6
:100480006B680B930B9A029B934239D313005D4A1E
:10049000102194460024019A63445B00D318009A0B
:1004A000891A019A9A4200D89FE07368002B07D0FE
:1004B000544A07999A185200525A002A00D19EE0D5
:1004C0006B68002B00D175E74E4A01999A185200CB
:1004D000525A002A00D06DE7013B6B60F0E7009AAA
:1004E0005B0001329BB292B291E71988009F08002D
:1004F000B84002431A800A9A0233D1408AB29AE77E
:10050000A31E20880D931B880004184308991BF034
:10051000C5F80E9B0022E31A0C931900039B05906B
:100520009C4609928C4212D823889A4234D3D31A1B
:100530005A42190C9BB222805A1E9341CA18002AB3
:100540002CD003990C9B8C4600210F0042E0099BA4
:10055000009F180C63461B88BB4018436B460990EC
:100560009F8C059B5F430B889F4203D2D81B0F9043
:1005700090420CD8D31AFF187B420B80BBB23A0CC6
:100580005F1EBB41D218022302319C44CAE70F9B75
:100590009A1A0A800022F6E79A1A22806A460A9B73
:1005A000928A023B5A800A930B9B0D9C013B6B6025
:1005B00066E7380C09906046009F0088B840099FA4
:1005C000074318884118B8B24118022019808444A2
:1005D000090C02339C42ECD823885918059B2180D2
:1005E000013B090C521A0593A9E71A88009F1000D5
:1005F00038418A402043188094B2023B51E7013BC6
:10060000736052E7FFFFFF7F436870B55A00002315
:1006100084680A4DA218944206D30278D20700D506
:100620005B4201200B6070BD023AAB4203D81688D2
:100630001B043343EFE70020F5E7C046FF7F0000CF
:10064000F0B5060087B000AF7B60F960BA6010F0CB
:100650000FFEB06824F05FFB3861B06824F061FBE6
:1006600024F059FB032358433B69C01883001D0045
:100670007B6114352C2B2CD86B460E35ED08ED0024
:100680005B1B9D4600236C467B61002326606360F4
:10069000BA687B68F968200005F05CF9154D002107
:1006A0006B682000236173686B600DF06FFD236938
:1006B000061E6B6013D1A3681D687B69002B04D0F4
:1006C000200023F019FB002E11D12800BD4607B0F1
:1006D000F0BD280023F0EEFA041ED6D1CCE73B692A
:1006E00003339B00E3185D687B69002BE8D1280089
:1006F00010F07EFD802E00200122030030B5134053
:1007000085B004004510002B14D125491D008842F6
:1007100010D0244988420DD0234B1500984209D0AF
:100720000323034009D1214A0168914205D126F0F3
:1007300034FF0500280005B030BD1D4A25002240C9
:10074000062A05D0002B08D11A4B22689A4204D100
:1007500001A9200003F0FEFFEBE720000AF00AFDEC
:10076000154B984207D1FF23DB05E018032398437C
:100770001CF018F9DDE7114B984202D0104B98425B
:1007800006D101AA694620000AF07EFE019DD1E74C
:10079000022201A9200026F0DFF90028CAD0F5E7DF
:1007A0009CC5020058C9020060C9020058DA020064
:1007B000070080FFA4C90200E0C8020094A802005C
:1007C00080B40200F7B506000F0000920193041EEA
:1007D00000D044683800431E98412018043080003F
:1007E00023F05BFA0C4B050003600C4B5B68436025
:1007F000009B8360019BC360002E05D03100A200E6
:100800000831103029F04FFC002F02D00434A4002E
:1008100067512800FEBDC046ACA60200802E002015
:1008200070B5060010200D00140023F036FA034BBB
:10083000466085600360C46070BDC04670A602005B
:10084000F7B505002C200E001700019323F037FAAE
:100850000400057086608781072D01D0012D10D11D
:10086000337872780A3B1B021343E3816B461B7992
:10087000202063750423638423F00FFAA062200014
:10088000FEBD014B5B5DF0E75E170300F7B5CC1CC6
:10089000A400070020000E00019223F0FEF92200C0
:1008A0000500054B4760866003600C3A01990C30E7
:1008B00029F0F9FB2800FEBD14A80200F0B50E00D7
:1008C0001100002285B0B71C03901C0030000D4BB6
:1008D0000092BF000BF0D2FA380023F0DEF9466038
:1008E00006000500039B083F03600836E719BC4279
:1008F00002D1280005B0F0BD002101CC0FF08CFD25
:1009000001C6F4E7FFFF0000044B88600B60044B56
:1009100008004B600023CB607047C046DCC5020076
:100920002537020070B50E0010490400002524F0A0
:1009300012FD7368AB420AD8012B03D10C49200089
:1009400024F009FD0B49200024F005FD70BD002DA9
:1009500003D00949200024F0FEFCAB00F31801226B
:10096000996820000AF01EFC0135E2E7F35103000C
:1009700068170300F67F03006517030070B50D00CC
:1009800001281ED0002803D0022807D0002004E050
:100990004B680E48002B00D10D4870BD00260D4C51
:1009A0006B689E4203D3012064002043F5E7B30047
:1009B000EB18996802200FF0C7FB4010241801368D
:1009C000EEE74B685B001843E7E7C04660C90200EA
:1009D00058C902008CA8020070B506000D000B4833
:1009E000002E0DD0B41CA400200023F056F9084BB3
:1009F00046600360002D03D00023083CA34200D1D1
:100A000070BDE958C21891600433F7E78CA8020062
:100A100094A80200F0B5070085B00E0014001D2850
:100A200003D90025280005B0F0BD01238340324DD5
:100A30001D4044D1314A13421FD1F822920513427E
:100A4000EFD020000AF096FB2D4B426A9A4205D067
:100A500020002C4923F05AF8041E0CD0230031004A
:100A60006268083300920831726838000AF0BAFEF2
:100A7000254D0028D6D1254DD4E720000AF07AFB79
:100A8000204900F081FF0028CBD0736862682900FC
:100A90009818FFF7A1FF07003100736808379A0024
:100AA00005000831380029F0FEFA210070686368FB
:100AB000800038189A00083129F0F5FAB2E703A946
:100AC00010000AF07DFC0025A842ABD00398104D21
:100AD0000028A7DD736800215843FFF77DFF05005C
:100AE0002B003000083300930830039B7268042108
:100AF00026F059F896E7C046800010002000040058
:100B00000909000094A8020060C9020058C9020047
:100B10008CA8020030B5040085B0042A2DD103252D
:100B200040680D401FD1164B0A689A421BD101AA9A
:100B30000AF0DCFD002802D1124810F093FA019B64
:100B400002982900C01AFFF747FF050021006B68D3
:100B500008319A00019B08309C00091929F0A3FA7A
:100B6000280005B030BD0A000023010020680AF00B
:100B7000C1FC023080000559F2E70025F0E7C046CD
:100B800038C702006A170300F0B50C0011000022FC
:100B900085B01E000092012320000BF06FF9184D64
:100BA000002C1ED03568AB0703D1164B2A689A4239
:100BB00017D0102023F071F80021040030680FF0E6
:100BC0002BFC00250426039003980FF087FC071EDA
:100BD0000AD128002100FFF7FFFE0500200023F0C6
:100BE0008BF8280005B0F0BDAE4205D8F10020001A
:100BF00023F071F804007600AB001F510135E3E7E4
:100C00008CA8020094A8020010B50400082023F06C
:100C100044F8024B4460036010BDC04604A90200C2
:100C20000021F0B5070087B0816422F000FEFB6967
:100C30003C6ABB637B6AFC63002B05DA3A00062141
:100C400040321170013306E0002B07D03A00052135
:100C500040321170013B7B6207B0F0BD002833D0F9
:100C6000BB6A002B30D13900043340310B703A6B32
:100C7000AE4B786BD3185B001B5A013C9C42EBD007
:100C800017D9F96A8A4207D30831490023F023F8BB
:100C9000FB6A78630833FB623B6B5A1C3A637A6BDE
:100CA0005B009C527B6ACDE7013B3B637B6A013B67
:100CB0007B623B6B9D4A9A185200125A9442F3D3BE
:100CC000CAD002230B70C7E73C69631C03D1002222
:100CD00040373A70C0E7380022F051FD04900028F8
:100CE00000D129E13B00403305930023059A13709E
:100CF0003B69752B5AD0622B07D17B69722B5CD074
:100D000001240B230022019208E0722B51D17B6950
:100D1000622B52D0049B012401930A2339004031F5
:100D20000A78002A4ED10B70002C07D0380022F030
:100D30004EFD022C02D1380022F049FD3B6902939E
:100D4000222B01D027230293380022F040FD0123FB
:100D5000029A03933B6993420BD113007A69934241
:100D600007D1380022F033FD380022F030FD032394
:100D7000039300263C69631C00D1CEE0039B012B4A
:100D800002D10A2C00D1C8E0039B9E421DD338003B
:100D90003100443024F07DF90121380022F047FD74
:100DA000380022F0ECFC0028A2D155E701240A23E8
:100DB000A8E700240A230194B0E7049B02240193CE
:100DC0000B23ABE79A42AFD046E7029BA34209D17F
:100DD000380019004430013605F018FE380022F0C2
:100DE000F6FCC7E75C2C00D091E0380022F0EFFC65
:100DF000019B3D69002B06D038005C21443005F092
:100E000005FE2C0071E0622D51D030D84E2D77D0E8
:100E10001AD8222D29D0272D27D000260A2DDDD043
:100E20002C00303C0326072CE6D87B69303B072B8F
:100E30005BD8013E002E58D0380022F0C8FC3B6938
:100E4000E400303B1C19F0E75C2D0ED00724612D27
:100E500021D0552DE4D13B0040331B780B2B2ED1F4
:100E600038005C21443005F0D1FD2C0013E0742DD6
:100E70001FD007D86E2D1ED0722D0BD0662DCFD16E
:100E80000C2408E0762D18D0E5D30226782DC7D1A2
:100E9000002428E00D243B0040331B780A2B32D17C
:100EA00038002100443005F0B1FD002696E7082403
:100EB000F1E70924EFE70A24EDE70B24EBE7082626
:100EC000752DE5D1043EE3E7380022F080FC3D6952
:100ED000280007F023FF002800D144E1280024F077
:100EE0003CFC24012418013EEED20026631C00D1F4
:100EF00074E70F4B9C42CED90122059B1A70D4E7B0
:100F00000C4810F0AFF8FF2CF6D80B2BF4D13800BA
:100F1000E1B2443024F079F8C7E7039B9E4200D346
:100F200035E73B00032240331A7030E7FFFFFF7FB5
:100F3000FFFF1000DC170300200007F0D7FE041E9F
:100F4000386903D15F2801D07F2842D93D000723AB
:100F50003C0040352B704434C1B2200024F055F8D9
:100F6000380022F034FC3869431C1BD1200024F0E7
:100F70003AF8002406007E4FA300F958300029F00B
:100F8000CAF800281ED10D34E4B22C70102C00D009
:100F900062E6784BA8331A680D23002A00D1023389
:100FA0002B7059E607F0A2FE002808D138695F28A7
:100FB00005D07F2803D807F0A5FE0028D6D03B69CE
:100FC000D9B2CAE7002800DA46E60134222CD3D190
:100FD00042E607F097FE00280FD03E003969403600
:100FE0002E2916D1092333703D004435280005F021
:100FF0000DFD380022F0EBFB31E03B692E2B04D1D4
:10100000786907F07FFE0028E7D100255A4C0223BB
:101010004AE0082333703029E6D17A691833134344
:10102000623B0024162BDFD8544CDC4001231C40CB
:10103000DAE7002C17D1030020229343452B12D16D
:101040003C3B33706521280005F0E0FC380022F0BD
:10105000BEFB396902220B002B3B9343C6D0386993
:10106000431CE6D1F8E507F041FE002805D03969B8
:101070002E290BD109233370B8E7386907F042FEF7
:101080000028F4D13B692E2BF1D0E5E50B0020229E
:1010900093434A2BAAD1EDE7633E9E43F6B27242D8
:1010A0005641A419013501342678002E02D03A6940
:1010B000B242F1D1380022F08AFB002E02D1403733
:1010C000012206E6212E08D13B693D2BF7D13800DD
:1010D00022F07DFB40374122FBE52E2E12D13C0051
:1010E0003B6940342E2B02D17B692E2B02D04A2340
:1010F0002370B1E5380022F06AFB380022F067FB6C
:101100000C23F5E72A000134267802213300633BE3
:101110008B43DBB2002B0ED16378396901359942DC
:1011200007D1380022F053FB2A00652E03D0023489
:10113000EAE7632EFBD1124B9B5C3A0040321370FE
:10114000190004229143422901D0442B03D1BB6AE8
:101150000133BB6280E5432902D0452B00D07BE5FB
:10116000BB6A013BF5E70122059B04001A7092E679
:1011700040A90200802E00209B17030001204000A0
:101180006B180300F8B5124A0E00124B1249904238
:101190001AD0C4688C4203D0012430602000F8BD0E
:1011A000406B002812D004689C42F0D10500002456
:1011B00047680835BF00EF19BD42EFD2310001CDBD
:1011C000FFF7E0FF2418F7E70024E7E70400E5E76E
:1011D0001CD2020094A80200CD120000F7B5050051
:1011E0000C00AB68002B0AD0344AE168914206D06B
:1011F000E358002B03D00422EB681A60F7BDA06B04
:10120000002820D06B680430D9000623002219433F
:101210000EF06AFD002816D0297C4268EB68286829
:10122000002904D0010000200FF01EF8E6E7002896
:1012300007D02249E5688D4203D021498C4200D075
:1012400000692100F0E72B68002B16D1646B002C9D
:10125000D4D01C4B22681A4F9A420BD126006368E7
:10126000194A08369B189B00F3180193019B3468B8
:101270009E4216D3BC42B4D1C0E72A7C002AE5D1F5
:101280000E4AE1689142E1D00D4A9442DED01869DD
:10129000EA6869680FF042F8EB681B68002BD5D04C
:1012A000ACE7BC4201D10436E0E721002800FFF79B
:1012B00095FFEB681B68002BF5D09FE7CD1200006F
:1012C0001CD2020094A80200FFFFFF3FF0B58FB0D0
:1012D0000E0005A9019202930700FFF753FF041DBA
:1012E000A400200022F0D9FC0500002180C025F0D8
:1012F0005BFF22002800103A1030002128F0EFFE9A
:10130000012E05D1029B1B680393042B00D186E0BC
:1013100007AC08220021200028F0E1FE414A09A87C
:10132000002342600C2239008260C4600374099378
:10133000FFF754FF079804282ED10598029BC46834
:10134000019A3100A0472861280009F013FFB84234
:1013500065D10023344A390009A8089307930B93F9
:1013600009950A92FFF73AFF079B002B57D0019887
:10137000304336D107AA010025F0F7FF04002B4BBC
:101380009C424CD0200025F0D0FB2949020029487E
:1013900001F096F80FF02CFF0028D5D0019A3243C7
:1013A00006D106AB012106970EF040FF0500CBE702
:1013B000019B5D00AD190135AD00280022F06DFCE8
:1013C0002A1F0390029980C028F06DFE711C039BB8
:1013D000019A20680EF02AFF0500039822F08CFC89
:1013E000B2E7019B5C00A4190234A400200022F0A3
:1013F00054FC22000700079B029903600393089B9B
:10140000083A4360083028F04EFE3A000199300057
:1014100025F0ABFF0400380022F06EFCAFE7280097
:101420000FB0F0BD31020000290200009CC502008F
:10143000E6180300B0B10200F0B5146889B01700D7
:10144000002C0ED1436803AD82686960596B03922A
:10145000AC60EF602C74002905D111492800FFF71A
:10146000BDFE09B0F0BD0F4B0A689A4210D14B681F
:1014700008310E000193019B9C42EED0A300F1586D
:101480002800FFF7ABFE3B68002BEAD10134F2E7FE
:101490002800FFF7A3FE3B68002BE2D1DDE7C04642
:1014A0001CD2020094A8020010B54A68014924F039
:1014B00013F810BDE0190300F0B58BB005000E0065
:1014C000140000210822684628F009FE002110229D
:1014D00006A828F004FE202307936B460595089381
:1014E0002968002C0FD1144B05A80693FFF776FE50
:1014F0000221009F042F12D12200310028690AF036
:10150000A9F80BB0F0BD042C01D10C4BECE78E23F5
:1015100005A89B000693FFF761FE0321E9E7381E4B
:10152000EFD002AB00220295039604940EF07EFEEB
:10153000042CE6D00248E4E71F0200002502000068
:101540009CC50200F0B51F4B8BB08200D35803AF8F
:101550000C000822002106003800019328F0BFFD8E
:10156000019B05AD6B601423AB600023280021684C
:101570000594EF602B74FFF731FE0398042805D122
:10158000216930000EF0E0FD0BB0F0BD00280AD05C
:10159000210025F0E2FE022EF6D109F0FFFE440004
:1015A00001202043F0E7022E01D00020ECE7064B9B
:1015B000216828006B60FFF711FE3B68002BF4D117
:1015C0006400EDE750AB020021020000F0B5564286
:1015D0005641032376428BB01E40294B0C000190EC
:1015E0000021170003A80822F61828F078FD082328
:1015F000079303AB0893002305AD216828002B74E3
:1016000005940696FFF7EAFD039B002B08D1002FF7
:1016100006D11B4B216828006B60AF60FFF7DEFD31
:10162000039804281AD1206909F0A4FD154BC2685B
:101630009A4211D1002F07D02368586823F0B6FBD7
:101640000100019823F087FE80223A432169019826
:1016500009F0A8FD0BB0F0BD3A00F7E7002805D06F
:10166000210025F07AFE00220100F0E7200025F09D
:101670005CFA230002000449019823F02DFFE9E7FA
:1016800036020000812300009518030070B50400A5
:101690000D000B4923F05FFE69680022200009F06D
:1016A00081FD0849200023F056FEA9680022200091
:1016B00009F078FD0449200023F04DFE70BDC046BE
:1016C0009E19030065170300EB19030010B5C468E9
:1016D000002C06D142680449044800F0F1FE0FF0E6
:1016E00087FDA04710BDC046A7190300B0B1020096
:1016F000F0B589B001AE040008220F0030000021CF
:1017000028F0EDFC104B03A843600025242321683A
:101710008360C66005740394FFF760FD019B1800A9
:10172000AB4208D0042B08D1206909F023FD390011
:10173000436A2069984709B0F0BD320029002800AB
:1017400025F013FEF7E7C0462A020000F0B5154B5E
:1017500089B016008200D5580C000C220021070029
:10176000684628F0BCFC182303A845608360002568
:101770006B462168C36003940574FFF72FFD009B3F
:10178000042B06D13200216938000FF081FA09B02C
:10179000F0BD181EFBD06A4629000120029625F0F4
:1017A000E4FDF4E7C8A90200F0B5170087228DB068
:1017B0000400920007A8426003931022002305ADA5
:1017C0000E0021688260C560037405936B60079406
:1017D000FFF704FD0598002809D1200025F0A5F9A0
:1017E0000B4902000B4800F06BFE0FF001FD039B5C
:1017F000042806D13A00310020690EF017FD0DB023
:10180000F0BD009332003B00696825F006FBF6E767
:10181000CA180300B0B10200F0B50D0085B001A9EF
:1018200007001600280002AA21F09CFF002301995E
:10183000029899422CD13C2022F041FA2A4B019A7D
:1018400003602A4B04008360294B4760C360294B27
:101850000361294B4361294B8361294BC361294BA8
:101860000362294B4362294BC362002A06D0029BC4
:101870001968096B0163012A18D94563A66303A996
:101880002000FFF77FFC012813D921480FF0BCFB93
:101890009A008258D468002C06D152681D491E480F
:1018A00000F00EFE0FF0A4FC0133C2E71B68436397
:1018B000E4E7A36B0022181D18490EF015FA051E67
:1018C0000ED0032243681A400AD11968144B4968A4
:1018D000994205D1031D0121124822F07DF868606C
:1018E000200005B0F0BDC04614AB0200CD150000CD
:1018F000CD120000A9170000451500004D1700008B
:101900004B390200B9140000F1160000813A0200C0
:101910007019030047190300B0B102008E110000D6
:10192000850200009CAA020037B50D001C000023B0
:10193000110000930122033328000AF09FFA012DC1
:1019400004D0032D06D007480FF05EFB206809F095
:1019500011FC3EBD206802F0C7FAA2686168FFF77B
:101960005BFFF6E7C41903001FB5064B0A0001939D
:101970004B6802938B68010001A803930EF000FDF1
:1019800005B000BDD8AA0200F8B50E000327134920
:10199000134AB0421CD003003B401BD104688C4268
:1019A0001AD1406B002814D003689342F1D105008E
:1019B00044680C4B0835E418A4002C192868A5428B
:1019C000E5D23100FFF7E0FF002802D10435F5E74A
:1019D0000120F8BD0020FCE71800FAE714AB020074
:1019E00094A80200FFFFFF3FF0B585B0050001910C
:1019F00008008B0717D10B68134A93420BD10123C0
:101A0000029301AB03930024029E039FA6420DD1D3
:101A10000E4805B0F0BD0E4A934204D103AA02A9B4
:101A200021F0A0FEEFE70B480FF0EEFAA300F95803
:101A3000094B994206D02800FFF7A6FF002801D1E4
:101A40000134E3E70548E4E714AB020058C902009B
:101A500094A802000E1903001CD2020060C9020003
:101A600010B5830703D1054B02689A4202D004489F
:101A70000FF0CAFAFFF7B8FF10BDC04614AB020062
:101A8000A7180300F8B5070008680C0026F0A3FDAE
:101A90000500606809F094FD0600022F0AD9A068CD
:101AA00009F050FC02003100280022F03CF825F03B
:101AB00037FDF8BD004AF6E740420F0070B506005A
:101AC0000D00002814DD002907DD154819F070FE0F
:101AD0000124B04209DB002407E00100C020000619
:101AE00019F066FE0124A842F5DDE4B2200070BDC5
:101AF000002907DDC020000619F05AFE0124B0427B
:101B0000F3DCE8E70024A042F0D00100044819F01B
:101B10004FFE0123A84200DC231CDCB2E6E7C046EE
:101B2000FFFFFF3F80235B051869034B1B7843438E
:101B30008020C002C01A7047B32D002080235B05AF
:101B40001869034B1B7843438020C002C01A7047BA
:101B5000B42D002070B5084DC4012B680021181960
:101B600022F069FA2868054B00197F3000781B784D
:101B70008342F0D270BDC0463C010020B22D00204F
:101B800010B5C3790400002B08D0064A0379817987
:101B90001068DB01C018013022F04DFA00232372D7
:101BA00010BDC0463C01002010B5124B01001A6860
:101BB0004379DB01D31818007F300478FF2C08D15B
:101BC0000879C00112185278FF2A0FD08879904204
:101BD0000CD08A799B180132D2B258787E2A01D073
:101BE0008A7110BD00234C718B71FAE701204042CD
:101BF000F7E7C0463C01002070B5F8248025A40218
:101C000023786D054D2B4CD12B698020E41A2B696C
:101C1000C002E41A2969001B19F040FD2B4B2C4926
:101C200018702B69E21852185D421540294B2A4A58
:101C30009B1A2A4A9B188022520511699D4234D36F
:101C40008020C002401B19F029FD254B641B187031
:101C5000E411244BE4B21C70A12001230025224A88
:101C600022491360C0004D604B68002BFCD0135814
:101C7000DBB2A342F7D21E4901330B70012353603C
:101C8000FFF750FF037805001A4CFD2B0FD180237E
:101C90005B051869184BC009C018C00128182060DE
:101CA00070BD80242B69E402AFE76D18C5E7FFF72C
:101CB00045FF0378803DFD2B01D12560F0E7FFF75C
:101CC0003DFFFD2122F0B7F9F7E7C046B42D002013
:101CD000FF87FFFF1801002000000020D4A70300A9
:101CE000B32D0020B22D002000D00040FCD00040D9
:101CF000B52D00203C010020FFFFFF01F7B5254B6B
:101D0000254F1A78254B14001B7839680133E00100
:101D1000405CFF2829D00134E4B29C4200D1012468
:101D20009442F4D1802300265B051B69DB090193F3
:101D3000E30100933B68E2019D182B7828005A428A
:101D40005341F61822F08DF9002810D0002304E04A
:101D5000DA01AA5C002A0AD10133019A9342F7D131
:101D60003868009BC01822F072F92000FEBD0B4BB2
:101D700001341B78E4B201339C4200D10124054BAD
:101D80001B78A342D4D1072E02D921F01DFFB6E75C
:101D9000FF24EAE7B52D00203C010020B22D0020F1
:101DA000F7B507000D0001240E4B1B7801930E4B75
:101DB0001E68019BA34202D2FF242000FEBDE10168
:101DC00071180B78FE2B09D18B78AB4206D1033109
:101DD0002A00380028F058F90028EED00134E4B287
:101DE000E7E7C046B22D00203C01002010B5054AAF
:101DF00003791068DB01C01881780022033002F0FB
:101E000051F810BD3C010020F0B585B002900D00E6
:101E100016000393782949D8FFF7C2FF0400002E6B
:101E20003CD0FF2801D0FFF795FEFFF767FF0400C5
:101E3000FF2803D11E491F4825F0D3FA1E4FC001C9
:101E40003B680190FE21181822F0F5F83B68019AD2
:101E5000E9B29818023022F0EEF83868019B2A00A7
:101E6000C0180330029901F0A3FD0C2021F015FFEA
:101E7000039A0300002A17D0104A1A600E4A1C71F8
:101E800012685C71E4011419A278DE7102329A7151
:101E900001221A726A46127B5A7202E03300FF284E
:101EA000E3D1180005B0F0BD054AE6E70023F8E7E6
:101EB000ED19030048B002003C010020E8E60200F2
:101EC00094E7020007B501A902F044FC0199FFF76D
:101ED00067FFFF2803D10449044825F082FAFFF781
:101EE00039FE03480EBDC046201A030048B0020068
:101EF0009CC50200F7B50192027A04000091002A05
:101F000002D124480EF0BCFEC579002D06D1224A2C
:101F100017680279D201D25D002A05D10922012574
:101F20001A606D422800FEBD61797E22C9017918D0
:101F300008007F30A3790078D21AFF2809D12079D0
:101F4000C00138184078FF2819D0C01A824200D941
:101F500002000198461B964200D91600002EE1D0DF
:101F6000009A01335019C918320028F09CF8A3795F
:101F70009B19DBB27E2B04D0A371AD19D4E70022EC
:101F8000E7E70023A3716379DB01FB187F331B783C
:101F90006371F2E7031A03003C010020F0B585B03D
:101FA0000393037A040002910192002B02D130487E
:101FB0000EF066FEC379002B08D02E4A0379126812
:101FC000DB019B5C019A0092002B25D10923039A27
:101FD00013600A3B0193019805B0F0BD7E22A379FE
:101FE000D71A009A974200D917006079214E013321
:101FF000C001C01833683A001818029901F0D8FCE3
:10200000A379DB19DBB27E2B0AD0A371029BDB190B
:102010000293009BDB1B0093009B002BDED1DAE7D1
:102020000023A371FFF76AFE0500FF2809D120797C
:10203000FFF790FD002323721C23039A13601D3BBE
:10204000C8E760793368C001181829007F3021F093
:10205000F2FF3368ED015819617921F0ECFF6279E4
:102060003368D2019B187F331B786371CEE7C0467B
:10207000031A03003C010020002170B5080021F084
:10208000AFFF012405000C4B1B78A34201D22800AE
:1020900070BD0A4AE3011068C0180378FE2B08D10E
:1020A00081780022033001F0FDFE0100280001F0DC
:1020B000E5F90134E4B2E6E7B22D00203C0100204E
:1020C00073B501A902F046FB0199FFF769FEFF28ED
:1020D00003D10E490E4825F084F900257E260D4BCC
:1020E0001C68C301E31859789B780233DBB2C20144
:1020F000A2187F321078FF2804D1C81A401925F0A1
:102100000FFA76BDF31AED180023F0E7201A03004A
:1021100048B002003C0100201FB5034A034B21F0E8
:10212000B9FB05B000BDC046A91B0000811B000023
:10213000F0B505008BB008680C0002F0F5FA0490C9
:1021400004A821F0DDFD00260127049B03900693DF
:10215000069B197800291AD13000FEF73DFC0122B8
:10216000070007A9606809F0A7FA079B089A05937A
:102170009B180193022D1FD9A06809F0E3F80028ED
:1021800017DA089BC01814D528480EF079FD08000E
:1021900006F0B8FD002806D006A821F0C3FD069B76
:1021A0001B78732B00D13800069B36180133069339
:1021B000CEE7059B181805900025B54202D33800DC
:1021C0000BB0F0BD049B0124187806F09BFD00289D
:1021D00003D004A821F0A6FD04000598019A031974
:1021E0009A42D1D3049B1B78732B10D02D19AB00CE
:1021F0000293049B013C14D3197805AA03980FF0AD
:1022000073FD029AA300D31AFB185860F1E721006E
:1022100001F060FE059B1C19AB1C9B000594013569
:10222000D851049B01330493C7E7C0462F1A03001B
:10223000F0B589B0039101921E0002F075FA049086
:1022400004A821F05DFD00250290B54201D309B03C
:10225000F0BD049B18780028F9D006F053FD012446
:10226000002803D004A821F05DFD0400039B019A1F
:102270001B199A4202D21B480EF002FD049B1B78E8
:10228000732B10D02D190E9BAF00DF19049B002C6F
:1022900024D0A20052421978BA5803AB02980FF02A
:1022A00083FD013CF2E70E9B6F1CAD00E858012254
:1022B00005A909F001FA069DA54200D925002A00CA
:1022C0000599039827F0EFFE039B621B58193D0008
:1022D000002127F004FF039B1C190394049B013386
:1022E0000493B2E72F1A0300F0B50E0089B00390F3
:1022F00001CE0F0021F02CFD4410210004A822F093
:1023000035FE069D22000021280027F0E8FE039BF1
:102310000096013B2A1929003868FFF789FF04A9B4
:10232000024801F089FD09B0F0BDC046FCB40200CE
:1023300030B50C0089B005000222606805A909F0DB
:10234000BBF9A06808F0FEFF002806DA069B03939D
:10235000C01802D508480EF093FC0599069AEB1EAA
:102360008A18091820000C3000902068FFF760FFE1
:10237000024809B030BDC0462F1A03009CC50200B8
:10238000F7B50D00110000220600009228001F0082
:102390000B4B09F073FD102021F08CFC041E08D1BA
:1023A000084B094A094C5A62002326602000A360AA
:1023B000FEBD39002800FEF70FFBE060F4E7C046E1
:1023C000FFFF0000802E00208CA80200982E002025
:1023D00010B5013810C9FEF7FFFAE060004810BDE3
:1023E0009CC50200F8B57F2553B204000E0017000B
:1023F0001540002B0ADB6B1E012B07D80B685868B1
:1024000022F0D4FC0100200022F0A5FF022D16D1FD
:102410000F49200022F09FFFF368002B02D05A687A
:10242000002A04D10B49200022F095FFF8BD012AB3
:1024300007D100229968200008F0B4FEF6E7002DCD
:10244000EAD03A00F1682000FEF76CFAEEE7C046E9
:10245000A4190300AF210300C36803485A68002A87
:1024600000D098687047C0469CC50200136810B53C
:102470001400002B0AD00D4B994206D10C4B526828
:102480009A4202D10023C380236010BD094B9942B8
:1024900001D1C368F8E7084B02689A42F5D1074BAF
:1024A0009942F2D1FFF7D8FF2060EEE73B0200002F
:1024B0009CC5020043020000FCB0020023030000A0
:1024C0000EB470B5050087B0102021F0F3FB041E98
:1024D0000BD11A4B1A4A1B4C9D6118625A6220009C
:1024E00007B070BC08BC03B01847002105608160CC
:1024F0000120FEF771FA2521E06005000B9827F016
:10250000FCFD061E09D10B9827F00FFE32000100DA
:102510000B9801F0C7FCA860E1E702A8102122F0A7
:1025200014FD0CAA0B9902A8019204F0C3FA02A9A7
:102530000548E56801F080FCEDE7C046802E0020EC
:102540008CA80200982E0020A4C9020010B5030038
:10255000820708D1064A0168914204D1054AD96828
:102560000120914203D004491800FFF70DFA10BD75
:1025700014AB0200812300003CAD020010B5040042
:1025800008F0F8FD034BC2689A4200D0246900238A
:10259000A36010BD81230000F8B516001D000400E3
:1025A0000F0008F0E7FD154BC2689A4200D024697D
:1025B000A068002811D10C3021F07CFBA06000281D
:1025C0000AD003236360E288A1689300CB1803322A
:1025D000E2801F605E609D60F8BDE388A1880233E1
:1025E0008B42F0DB03318900012221F081FB0028BE
:1025F000F2D0A388A0600333A380E4E78123000026
:1026000070B5150004000E0008F0B4FD064BC2685A
:102610009A4200D02469A368002B02D133602B605A
:1026200070BDE2883260FAE781230000F0B58BB01C
:10263000079310AB10CB009001911B78062A12D89B
:10264000012A08D93F230B700B00013301930023AB
:1026500001990B7001E0002AF9D1012090428041DC
:1026600040420BB0F0BD0099002929DA019B019985
:102670005F1C2D230B70802109068C46009B634450
:102680000093019BFF210993009BC9051800084096
:10269000884222D120234E21079AF81C1A401300A9
:1026A0001143009A540212D149225A403A704622EC
:1026B00053407970BB700023FB70019BC01AD0E7B8
:1026C000019F002BDDD0390001370B70D9E7412481
:1026D000634039707B70B970EDE7002C00DA062496
:1026E0000199013A7D1A551B202207991143029145
:1026F000672940D1002C00D1CFE1002B79D0A64A28
:10270000934200D9D5E0A549009819F0ABF9431ED2
:102710009841002300263030039320330590049322
:102720009F4B039A0099D05819F092F9002808D0CD
:10273000049B039AF6189B4B0098D15819F026FE7B
:102740000090049B5B100493039B04330393182BAA
:10275000E6D115330393009A8F4B93425DD38F4993
:10276000009819F07FF9002851D0002E7DD0FE236B
:102770009B05009351E0002BC1D1029B662B38D101
:10278000631CAB4200DBAC1E029B651C0493002360
:102790001E0003930593E343DB171C40049B652B4A
:1027A00000D0EFE0651C00230693069B9D424DDDA3
:1027B00000981AF0F7F87B1C0893030030333B7045
:1027C000059A069B934205D1002C03D0BB1C0893AD
:1027D0002E237B701AF006F9011C009819F008FFEF
:1027E000714919F0D3FD069B009001330693089FB1
:1027F000DBE7631DAB4200DBAC1F029B652B00D106
:10280000B0E000250493039505952E00C3E70098DA
:10281000654919F0BBFD01360090029B662B03D081
:10282000672B3AD1042E38DC6B461B7D3B70029B34
:10283000672B01D1731EE418631CAB4200DBAC1E96
:10284000002C15D16623013703940493029B662B59
:1028500000D0AFE0012E00DDDCE05449009819F013
:1028600001F9002800D0ABE0D4E02B2303937EE7EE
:102870002E23250030227B70BB1C013E1F00002E42
:1028800076D0002D05D1039501235B420593673374
:102890004DE01A70013D0133EFE76B1FA3426CDC82
:1028A000029A672A66D01300AC1F00250493059591
:1028B00071E700230026039320330493394B039AD6
:1028C0000099D05819F0BAF8002808D0049B039A50
:1028D000F618334B0098D15819F058FD0090049B1E
:1028E0005B100493039B04330393182BE6D12E490A
:1028F000009819F0B7F8002805D000982C4919F075
:1029000045FD01360090029B662B12D1AE4214DACF
:10291000A3190133AB4204DBAC1B023C631C00D1A6
:10292000002400233519039301350596663304937B
:1029300031E7029B652B00D0B1E06B1FA34200DCA6
:10294000AC1F2B230025039305953A33EFE7231D96
:10295000AB4200DB6C1F029BA64200DBA3E0731CB2
:10296000E41ADEE7029B002504932B2303934BE735
:10297000039689E71C00029B97E70025029B0595BB
:1029800004930BE7049B672B00D00CE7251E00D0B7
:1029900009E701252C0006E7FFFF7F3FF8FF7F3F97
:1029A000A0B20200B8B20200000020410000A04026
:1029B000CDCCCC3D3E49009819F054F8002824D0E5
:1029C00030217B1E1A782E2A50D01000303809286A
:1029D00043D901330193019B1B78302B15D1019A08
:1029E00052782E2A46D10499662943D001994B701A
:1029F000039B0A702D2B3BD1013E002E3CD03B00A7
:102A0000019A9A423BD331231370029B672B01D169
:102A1000002C3AD1039B002B1AD02022079B0A21BD
:102A200013401A00452313433B706B461B7B300059
:102A30007B7018F0BDFE0A2118F0A0FF3031B9708C
:102A400030000A2118F09AFF3C1D3031F970270040
:102A500000233B70099BF81A03E6392A02D00132A1
:102A60001A70B7E7019A19709342B4D0013BA9E7F5
:102A70000136C4E70137C2E72B230393BFE75A1E91
:102A8000117819701300BBE71F007B1E1A78302ADB
:102A9000FAD02E2ABED11F00BCE701242DE6029BEE
:102AA000672B00D153E704932B2300250393FEE605
:102AB0000000A0400022104B10491A60030012339E
:102AC000FF3341185A701A7004338B42FAD1010057
:102AD0000300002209310833FF311A709A705A70CE
:102AE000DA7004338B42F8D1C3237F229B00C25497
:102AF000034B044A1A607047440100201103000090
:102B000004000020401A0300F0B500267E243200A5
:102B100031009300C318FF335F7C7F2F4CD09B7C28
:102B2000F618F6B2531CDBB2EF2E2AD9C1267D254A
:102B3000B60086193700AC469C4516DA9B00C318D0
:102B4000FF3359749974D97419757D230232D2B246
:102B5000934211DA9300C318FF335C749974D974EB
:102B6000197500260132D2B2D3E73D68043FBD603B
:102B700001256D42AC44DFE73568013B7560043EDA
:102B8000E6E77D2FEED80D4DEF5D01252F42E9D010
:102B9000C1227D26920082189E4208DA9A0082188D
:102BA000FF3254749174D17411751A00D9E7156805
:102BB000013E5560043AEFE7F0BDC046231B030019
:102BC00070B5002140250D4C8B00C318FF335A7C93
:102BD0007F2A11D0A25C0131C9B22A42F4D05A7DB9
:102BE0007F2AF1D0A25C7F2AEED9DA7D56B2002E80
:102BF000EADD0132DA74E7E770BDC046D21A03009D
:102C00000300F7B500214C4A1333FF3382181970C3
:102C100004339A42FBD1FC2300249C4622008444C6
:102C200053B2002B04DA454B454A1A60002008E0F5
:102C300063461F69BC4205D37F234432920013547C
:102C40000120FEBDDE68355D602D01D9203DEDB26D
:102C5000611CC9B28F4251D0735C602B01D9203BFB
:102C6000DBB2232D4DD1303B092B02D9334B354AF2
:102C7000DBE70234E1B28F4204D8FF2BF6D8437071
:102C80000C00CDE7745C2500303D092DF5D80A25F0
:102C90006B430131303BE318C9B2ECE70136512EEA
:102CA00030D10023284C1F5DDEB22A2F0CD1274FD4
:102CB000FF5CAF4208D19300C318FF335E744478C1
:102CC00001321C75D2B2DBE70133512BEBD1204C22
:102CD000493B08342678AE4208D0013C002B02D193
:102CE000164B1C4AA1E7013BDBB2F3E7002BF7D000
:102CF00014004334A4000419A370C1E7232DB5D0F8
:102D000000230026F7B20197104FF75DAF42C5D1FF
:102D10000D4FF75D2A2FC1D09F42BFD16946930066
:102D20000979C318FF335974417801320234197597
:102D3000D2B2E1B2A4E7C0461203000004000020B2
:102D4000431A0300551A0300621C0300111C030000
:102D5000B31C0300631A030010B51130084A094977
:102D6000FF3003787F2B00D110BD02240457002CC4
:102D700003DCCB5C43700430F3E7D35CFAE7C04676
:102D8000C11B0300711B0300F0B50023070085B0D1
:102D90009E00BE193100FF314A7C9C467F2A01D13A
:102DA00005B0F0BD544B02209C5C63460133DBB29E
:102DB0000442EDD0012560462C4247D15419E0B2BF
:102DC00000904E487C35801840780190C87C097D81
:102DD00002900391C1218900791808009D422BDAE5
:102DE00068469B000078FB18FF33587468460079EA
:102DF000941C98746846007AE4B2D8746846007BE4
:102E000018753E48634682183000FF309578027D81
:102E1000023300927D22C67CDBB29A4211DA9B001B
:102E2000FB18FF335C749D74DE746A4612781A7561
:102E300063460333DBB2ABE70468013D446004380A
:102E4000CCE70868013A48600439E6E70130C0B2CF
:102E5000010044318900C95D0029F7D07F2909D0DC
:102E600008242548405C204200D091E724390129FC
:102E700000D88DE73000511CC9B200911F49FF30C6
:102E8000891849787D250191C17C0291017D0391CA
:102E9000C121890079180C009D4223DA6C469B0001
:102EA0002478FB18FF335C746C462479134D9C74B2
:102EB0006C46247ADC746C46247B1C75941CAA181E
:102EC00063469678027D023300927D22C57CDBB298
:102ED000E4B29A420BDA9B00FB18FF335C749E74D9
:102EE000DD74A2E72668013D6660043CD4E708680B
:102EF000013A48600439ECE7D21A0300711B030061
:102F0000F7B500229300C318FF335C7C002C03D17B
:102F10000132D1B20A00F5E77F2C00D127E110265B
:102F200093490D5D511CC9B2354228D0DC7CAD06F9
:102F3000ED0FA4462C00C1251434AD001F7D019473
:102F400045196D368E4215DA6C468D002479451987
:102F5000FF356C740024AC7464462F75EC745C7C93
:102F6000352C00D0C5E05A7B824CA25C5207D1D5EB
:102F7000102285E02C68013E6C60043DE2E74E2C97
:102F80001CD118220D24DD7C5C741E7DC1239B00A6
:102F9000C31870348C420CDA8B00C318FF335A7498
:102FA0000022DD749A741E75B4E71B22EAE71C2226
:102FB000E8E71F68013C5F60043BEBE74F2CF4D06F
:102FC000502CF4D06DB2002D2BDADD7C002D28D0F2
:102FD0000D004435AD002D5C002D22D1961CF5B2BC
:102FE0000195AD004519FF356F7C7F2F19D0604EDC
:102FF000F75D7F2F15D9EF7C002F12D0C1237D22E2
:103000009B00C318019C944206DD1F236B740023B0
:10301000AB74EB742B757DE71C68013A5C60043B74
:10302000F0E7172C2ED15C7B013AD2B2452C1DD192
:103030001B3C5C7315004335AD004D4C2D5C655D4C
:103040007F2D00D866E70132D2B292008218FF329B
:10305000557C002D00D180E0645D7F2C00D859E7BD
:10306000D27C002A00D055E71E3209E0392C01D16C
:103070000D3CDEE73E4A125D7F2A00D84AE7122265
:103080005A7447E7182C07D15A7B394CA25C7F2A27
:1030900000D83FE71322F3E7202C05D15A7B3C2AC6
:1030A00000D037E7163AEBE7482C15D15C7D7F2C32
:1030B00002D14B245C7403E02D4D2C5DA406F8D5A1
:1030C0005C7C2B4D2D5DED0700D448E75D7B202D0A
:1030D0003CD10C3C5C741DE73C2CF1D15A7D7F2A1D
:1030E00000D117E7224CA25C920600D512E73F22DE
:1030F000C6E72A2C16D1DA7C1C7DC1237D259B00D6
:10310000C3188D4209DA2B258B00C318FF335D7479
:103110000025DA749D741C75FCE61E68013D5E6036
:10312000043BEEE72C2C11D1DA7C1C7DC1237D25DC
:103130009B00C3188D4204DA8B00C318FF332D2582
:10314000E5E71E68013D5E60043BF3E7452C00D1D6
:1031500070E7392C00D0DDE66CE7527D7F2A00D184
:10316000D8E6A25C7F2A00D8D4E61E2288E7F7BD05
:10317000D21A0300231B0300F0B50022060085B01D
:10318000130044339B009B5D7F2B31D05B4CE35C91
:10319000DB072AD51300511EC9B244318900584FAC
:1031A0007118013BDBB2002B23D008787F2803D0B5
:1031B000385C04397F28F4D999007118FF31487CB4
:1031C0007F280ED02027255C3D4204D04C4D285C42
:1031D0000425284205D0887C4508AC46013060446F
:1031E00088740133DBB29342E6D10132D2B2C7E731
:1031F0000023022712E06B0708D4EB070DD56246C7
:10320000FF32937CD9085B1A937406E0039B039A00
:103210009B7B99080133CB189373029B9A00B218D9
:103220001100FF3194464A7C7F2A64D034485D1CEB
:10323000845CEDB2029565B2002D21DA029A92000B
:10324000B218FF320392527C0192855C019C2A00E5
:1032500041257F2C00D0150040242242CBD1019C77
:10326000123C012CD9D840220233DBB244339B00FC
:103270009B5DC35C1342D0D08B7C013B8B74CCE74D
:103280001E4DAA5C08252A420ED0029B9B00F31813
:10329000FF335A7C7F2AC0D0825C3A42BDD00622DE
:1032A0009A7405229A73B8E73C421AD00133DBB214
:1032B0001A0044329200925D002AF7D07F2AACD0E7
:1032C0000F498A5C3A42A8D09B00F318FF339A7CDE
:1032D000520801329A746246FF32937C5B080133D4
:1032E00092E710231A4298D04B7BC35C3B4294D0A8
:1032F0008B7C023BC2E705B0F0BDC046231B030038
:10330000D21A030070B50400FFF7D4FB2000FFF7CA
:1033100077FC23000022FC33DA601A61904226D049
:103320002500224E11353368FF35934203D0290022
:103330001F4802F029FE2000FFF7E2FD2000FFF702
:103340003FFC2000FFF708FD2000FFF715FF2000DD
:10335000FFF71AFDC4222B009200A1181A78502AF8
:1033600006D97F2A07D00020124B134A1A6070BD7D
:1033700004338B42F2D13368002B02D00F481EF089
:1033800031FC2000FFF7C0FB3368002B03D029007D
:103390000B4802F0F9FD200020F03BFD054B0949E8
:1033A000186826F0B8FE43425841E0E7400100208B
:1033B0007A1A030004000020891A0300AF1A0300E0
:1033C000BF1A0300401A0300030010B50548002B84
:1033D00003D120F0F3FC0DF00BFF096820F0F4FCA2
:1033E000F9E7C04674B1020010B50348096807F058
:1033F000FDFE024810BDC0466CC802009CC502001C
:10340000002803D0012807D0002004E08B6804487E
:10341000002B00D1034870478B685B001843FAE724
:1034200060C9020058C90200044B88600B60044B5D
:1034300008004B600023CB607047C046DCC502002B
:103440006B3E020000238168F0B5CA0F094C521888
:1034500052100E199A4201DC0748F0BDC568F11AF6
:103460009C0089002C196D5827682560C4680133B9
:103470006750EFE7FFFFFF3F9CC5020070B5836810
:103480000D00416804008B4212D3C900C06820F0CF
:1034900022FC63680A495A00A3686260D21A0133A9
:1034A00052189B00E0609200C018002126F017FE21
:1034B000A368E268591C9B00A16002489D5070BD42
:1034C000FFFFFF3F9CC50200F8B5070016004C1037
:1034D000836812D5E41810D500240D4D380029005A
:1034E000FFF7CCFFBB68591E9B00FA68181F8C427F
:1034F00007DBA4002800A650F8BD9C42EDD91C00B3
:10350000EBE7D318083B1B68013913500300ECE7C5
:103510009CC5020070B50025040085601021C068BC
:1035200020F0D9FB04232900E0606360102226F01C
:10353000D6FD014870BDC0469CC5020030B50C00E8
:1035400085B0104B02AD0431009301380223019580
:1035500008F0C4FC23680C4C996801290FD9D8687D
:103560000A4B029AC91889004118A24200D10022D0
:103570002D79074B002D00D1064B20F084FC200054
:1035800005B030BDA4B302009CC50200FFFFFF3FA1
:1035900058C9020060C9020070B50C680B00A16830
:1035A0000200002903D11949194823F01AFF2068A5
:1035B000012A27D05A68002307F09CFFE168A2681F
:1035C00086008B19013A1D680436A260121A920017
:1035D0008919180026F070FD0021A368E0689A00A0
:1035E0001150616804290BD95B00994208D9490838
:1035F0008900E06820F06FFB6368E0605B0863604F
:10360000280070BD01225242D5E7C046C21C03000B
:10361000A4AE020007B5009001910220694620F097
:103620009AFC694601900220FFF7B6FF00480EBDE4
:103630009CC5020070B50E000D490500002421F064
:103640008AFEB368A34204D828000A4921F083FE09
:1036500070BD002C03D00849280021F07CFEF168E1
:10366000A30001225958280007F09CFD0134E8E727
:103670006A510300649603006517030070B50326C2
:1036800004000D000E4029D1174B0A689A4225D13B
:1036900083688A6899184368994210D9043189006F
:1036A000C06820F018FBAA68A368E0609B181A1D88
:1036B0009B006260C0181022310026F010FDA36844
:1036C000E9689800E3681818AB689A0026F0EBFCEC
:1036D000AB68A268D318A360044870BD290020001D
:1036E00020F042FCF8E7C04680B402009CC502000E
:1036F0000B4B70B5050003600C000800042900D2D4
:1037000004206860AC60800020F0C7FA6A68E86056
:10371000121BA40092000019002126F0E0FC70BDED
:1037200080B402007FB50D00160012283ED005D8E7
:10373000052819D007283FD0002434E00300193BA6
:10374000042BF9D893070DD1284B12689A4209D15E
:10375000B36800938A68F368C96808F043F8244C9A
:10376000002820D1234C1EE0032300241340A34251
:1037700019D11C001D4A3368934214D18B68B2687A
:10378000981820F00AFC0400AB68E9689A00C06849
:1037900026F089FCA868E36880001818B368F1680F
:1037A0009A0026F080FC200004B070BD11002800B3
:1037B000FFF764FF2C00F6E703A9100007F000FEF6
:1037C0000024A042EFD0039BA34200DA0394AB682D
:1037D0000398584320F0E1FBC36804000093AA68F3
:1037E000039B0421E86823F0DEF9DCE780B40200E3
:1037F00060C9020058C90200F0B5032704008BB06D
:103800000E0010000F40002A33D1002F2AD1654B43
:103810000A689A4226D104AAA06807F067FF002828
:1038200002D161480DF01EFC0599049BA268E06876
:103830005D1A521A9B00890041189200C01826F0A8
:103840003BFCA368AA00E818E368800018185242FD
:10385000390026F044FCA3685D19A560534D28008B
:103860000BB0F0BD07A9022007940896FFF794FE5D
:10387000F4E7042A2CD1A068002F1FD1494B0A6815
:103880009A421BD107AA07F031FF002806D107AAE8
:10389000E168A06823F09AF90500E0E7079B089823
:1038A000C01A20F07AFB8368E1689A00079B050044
:1038B0009B00C918C06826F0F6FBD0E70023010082
:1038C0003200206807F016FEE3688000C558C6E79E
:1038D000364D002F60D1334B0A689A425CD103AA5F
:1038E00002A907F0D1FD07AA3100A06807F0FEFE8B
:1038F000002896D0079B029A08999E180191761A83
:10390000E068002E27DDA368F1186368994206D9A4
:10391000890020F0E0F9A368E0609B196360029AD7
:10392000079BA1689B18F21A52180899E0689B003F
:10393000890041189200C01826F0BEFB029B039933
:103940009A00079B9800E368181826F0B5FBA36857
:103950009E19A66083E79B000399C018920026F089
:10396000A2FB0899A268E368521A890001935918CA
:103970000798029B9200C018019B8000181826F03F
:103980009BFBA368B200F018E3688000524218184D
:10399000390026F0A4FBDAE702003100200020F015
:1039A0003DFB5CE738C70200AF2103009CC5020065
:1039B000F8B50E00050014000EF02EFD33000327AD
:1039C0002B433B420BD1BC4209D9A208310028004D
:1039D00016F082FD2300BB43ED18F6183C40002C86
:1039E00004D022003100280025F09CFF80220449E9
:1039F000D2008B58002BFCD00EF0FEFCF8BDC04668
:103A000000E0014070B51500040020F076FB2A00AC
:103A10000249200020F02FFB70BDC046DD400200AF
:103A200070B543790D000024032B06D9836A074C37
:103A30009200E41AC369D358E418032120F04EFB26
:103A4000447024120570847070BDC046FD7F000074
:103A5000F7B500230400617183608371E260036144
:103A600001330F0015004361032906D80121836942
:103A700049429A00C06926F032FB0023A362236208
:103A8000AA8BEB8BD218002A00D10132384E2000CD
:103A9000310020F0F0FA2A8C3100200020F0EBFAFF
:103AA000E3682000197D20F012FBE3682000997D77
:103AB00020F00DFBE3682000197E20F008FBE3688E
:103AC0002000997E20F003FB042F27D1636A226A2D
:103AD00031009A1A200020F0CEFA3100EA89200045
:103AE00020F0C9FA3100AA89200020F0C4FA00268B
:103AF000AB8CB34217DCFF21200020F0FEFA042F2C
:103B000035D1EA8A2B8B0237D31801930023019A0F
:103B10009A422CD0AA8C0021009223E0022120009E
:103B200020F0C8FAD9E7AA6AF300D3181A78032A52
:103B300003D19978200020F0E0FA0136D8E7012679
:103B4000A86ACA008218507830420AD05088984239
:103B500007D15268D200606B99003A430A50013392
:103B6000D5E70131009A8A42E9DC0222F2E7F7BD8B
:103B7000B5400200F7B5234B0500A8331B6801913F
:103B8000022B0DD847698F420AD2836A0269CF1B84
:103B90009C1A3B00234304D1AB6A2B61019B6B61F0
:103BA000F7BD062F01D90F2C18D900941F2C01D96D
:103BB0001F230093009B00269C4203D83E00032F46
:103BC00000D903260121280020F074FA009A73011D
:103BD00013430370009BBF1BE41ADAE70A4B3E0055
:103BE0009F4200D91E000221280020F063FA7022B3
:103BF00033091340F03A2243134303704670009494
:103C0000E8E7C046802E0020FF07000070B50D00D9
:103C10000121040020F0EFFA0E2D14D00F2D17D043
:103C200010210D2D10D01721200020F066FA03225C
:103C3000A36A042103339343A362200020F04EFAC9
:103C4000044B036003E01121200020F056FA70BD00
:103C50001221F9E730E90200F8B5174F05000C0012
:103C600016000F40002A1AD1110020F0C4FA2304D4
:103C70000FD53221280020F040FA3221280020F010
:103C80003CFA3221280020F038FA3221280020F0B6
:103C900034FA3A0035212800FFF7C2FEF8BD3A0099
:103CA0004621FFF7BDFE7F23210A99433143C9B264
:103CB000280020F022FAF1E7FF7FFFFF032230B552
:103CC00002400121002A04D1084C05680B00A542DE
:103CD00009D00B00034006D1002A04D10368044830
:103CE0001B1A58424341180030BDC04668C9020043
:103CF00058DA020010B50400FFF7E0FF01220028A7
:103D00000AD1032302002340022B05D103480440BB
:103D1000063C2200541EA241100010BD070080FF87
:103D2000044B88600B60044B08004B600023CB60A1
:103D30007047C046DCC50200714C020010B507F0A8
:103D400019FA084B42680848D31859424B41AC2134
:103D50005B428B43C02189005B180449FEF7B0FB2E
:103D60000DF046FA00FDFFFFB0B10200D61C0300C3
:103D7000F7B504000E00019301208B180A00002102
:103D80000093009B934212D82725002900D0053DBF
:103D9000224F2A003900200021F09EFB009B9E420A
:103DA00014D32A003900200021F096FBF7BD1378C8
:103DB000272B08D0223B5D426B41DBB20132002B46
:103DC000DFD02725E4E700230100F7E73278AA4295
:103DD00005D12A001249200021F07EFB1AE011498A
:103DE0005C2A14D01F2A09D97F2A15D0019B002BE9
:103DF00002D053B2002B07DB3900ECE70A490A2A4C
:103E000005D00A490D2A02D0092A05D10849200007
:103E100021F0A1FA0136C1E70649DCE7DF20030003
:103E2000DE200300E2200300E5200300E820030079
:103E3000EB200300EE200300194B70B506000C00C8
:103E400098420FD14968A06801F09CFF051E09D077
:103E5000200021F09CF80023ED00236006331D4371
:103E6000280070BD10201FF018FF616805008160F8
:103E70000660A06801F068FF63686860591C2368E9
:103E8000994208D1A368EB600023EA68A9685354FB
:103E9000A3602360E4E7A0681FF01DFFE860F3E77C
:103EA000A4C9020070B504000D00002A05D001F07D
:103EB0009BFFC3000620184370BD01F063FF00287C
:103EC000F7D12A002100024820F0AAFDF4E7C046FD
:103ED000A4C9020010B50A000100024820F0A0FDAC
:103EE00010BDC046FCB40200094B10B50340062BC0
:103EF00001D1C00810BD830708D1064B02689A4261
:103F000004D18168C06801F06FFFF3E7FFF716FF87
:103F1000070080FFA4C90200064B10B50340062B22
:103F200003D1C00820F047FF10BD8368C0680B6054
:103F3000FAE7C046070080FFF0B50F00002589B002
:103F4000110006001C003800009503232A0007F02A
:103F500095FF0E20AF420FD0012F0FD102AA1021E2
:103F600004A802F047FD216802A82A0007F01AF908
:103F700004A93000FFF760FF09B0F0BD2068830797
:103F800022D1164B02689A421ED104A9FFF7C4FF42
:103F9000134B050020680340062B13D1C00820F006
:103FA000FBFE0400002C04D10499280001F0CCFE93
:103FB00004001020049F1FF070FE06608760C5603B
:103FC0004460D9E74468EDE704A9012207F074FBD7
:103FD000002205990498FFF765FFCDE7FCB40200C5
:103FE000070080FFF0B58DB00400039107F0C2F820
:103FF00004A906002000FFF78FFF039B01902F48C4
:104000009A0705D11B6883420AD02D4A934207D0F4
:10401000C36800220293012103AB029CA0470390D6
:10402000002406AA05A9039807F02EFA2500059B8F
:10403000A3420ED82900002508A820F097FF0A9C6B
:10404000059BAB4221D808A93000FFF7F5FE0DB063
:10405000F0BD069BA700D85907F08CF8B04202D0FB
:1040600018480CF0D1FF002C01D0049BED18069BE2
:10407000D859154B0340062B05D1C00820F091FEFE
:104080002D180134D3E78068FAE7002D06D0200010
:10409000049A019926F007F8049BE418069AAB00ED
:1040A000985807A9FFF738FF079A0100200025F06C
:1040B000FAFF079B0135E418C2E7C04680B402004E
:1040C00094A802001B210300070080FFF0B58BB00D
:1040D000049008680D000692079307F04BF804005F
:1040E000686807F047F80600A04202D06868FFF74A
:1040F00025FE08A92868FFF70FFF040009A96868D2
:10410000FFF70AFF089A0590A3180393049B270062
:10411000022B19D9AB681D498B4206D00121300012
:104120000091210004F0A2FC0700049B032B0BD09C
:10413000EB68164A934207D001222100009230001A
:10414000089A04F093FC0390039B059AD91B069BE5
:1041500038000093099B20F044FC002806D1079BFF
:104160000138002B0CD00A480CF08AFD094B9E4206
:1041700008D10100200021F0BFFA440001202043B3
:104180000BB0F0BD041B6400F8E7C0469CC50200FC
:1041900007210300A4C90200F0B5070087B0086832
:1041A0000D0006F0E7FF04A906002868FFF7B4FE3B
:1041B00005A904006868FFF7AFFE03902000022FF6
:1041C00007D901230093AB68049A2100300004F062
:1041D0004DFC059A041B049BA418064D9C4205D86F
:1041E000039925F051FF002800D1034D280007B0A6
:1041F000F0BDC04658C9020060C9020073B50D0089
:10420000060069462868FFF787FE01A90400686870
:10421000FFF782FE0100022E02D908480CF022FFAF
:10422000019A0098064D824206D8801A201825F07F
:104230002BFF002800D1034D280076BDF520030098
:1042400058C9020060C90200F0B58FB0079010682D
:104250000C00160006F08EFF0690012C31D070681D
:1042600006F088FF069B984202D07068FFF766FD53
:104270000DA97068FFF750FE0D9B089009930DA9DA
:104280003068FFF749FE0D9B0B900493079B012BB1
:104290001CD1049B5D1E01235B420A93002427006E
:1042A000049B03940593059B002B13D1039B002BC8
:1042B00023D1214B069A0E209A4200D01F480FB0FE
:1042C000F0BD072309931E4B0893D8E7012300256F
:1042D0000A93E3E70B9B09995A1901230898009365
:1042E00020F07FFB002816D1039B002B19D1079BE0
:1042F000002B09D12F00049B5C1E049B0134E21BA0
:10430000934212D13068DAE7079B2C00012B0AD0C8
:1043100001232F0003930A9BED18059B013B059396
:10432000C1E72C00F7E7039FE7E70B9B0698D91935
:1043300020F076FBC3E7C046A4C90200ECB402003B
:1043400074210300F0B589B0049008680D0006F0F0
:1043500011FF0400686806F00DFF0700A04202D0BC
:104360006868FFF7EBFC06A92868FFF7D5FD060093
:1043700007A96868FFF7D0FD069A0590B318039364
:10438000049B3400022B19D9AB681E498B4206D01E
:10439000012138000091310004F068FB0400049B07
:1043A000032B0BD0EB68174A934207D00122310050
:1043B00000923800069A04F059FB03900025079BF1
:1043C000AB4212D1039B2000191B21F0A4F901304C
:1043D00045000120284309B0F0BD0599200025F0D3
:1043E00053FE002808D101353400079A039BA61814
:1043F0009E42F2D96D00ECE7200021F074F906002E
:10440000F2E7C0469CC5020010B50100014820F04B
:10441000F9FB10BD3757020010B50100014820F02C
:10442000F1FB10BD49570200F7B50600080001A9CD
:10443000FFF772FD019B0500002B01D11348FEBD63
:10444000134B04009E4207D10027019A631B9A4236
:1044500011D8002F07D1F1E70E4B9E42F4D0019AFC
:10446000631B9A4201D80C48E9E72078B047013431
:104470000028F4D1E2E7207804F038FC002803D0CB
:104480002078B047071ED9D00134DEE758C90200B2
:10449000558D00006D8D000060C9020010B501004F
:1044A0000148FFF7C1FF10BDD58C000010B5010019
:1044B0000148FFF7B9FF10BDED8C000010B50100F9
:1044C0000148FFF7B1FF10BD058D000010B50100D8
:1044D0000148FFF7A9FF10BD558D000010B5010080
:1044E0000148FFF7A1FF10BD6D8D0000F0B585B04C
:1044F00006000C00170006F03DFE6946050030007E
:10450000FFF70AFD0600042F23D10098A30715D159
:10451000114B22689A4211D101AA210007F0E6F856
:10452000002802D10D480CF09DFD0199029A280047
:10453000521A711820F074FA05B0F0BD0023010082
:104540002200280006F0D6FF335C01205B001843F0
:10455000F2E70020F0E7C04638C702006A17030000
:1045600070B51D008EB0002900D174E018683B4C76
:1045700003002340062B05D0830726D1384B026861
:104580009A4222D10239012962D80AA9FFF7C4FC54
:10459000060028680440062C15D1C00820F0FCFB5A
:1045A0000400002C04D10A99300001F0CDFB040076
:1045B00010200A9D1FF071FB2A4B85600360C660C6
:1045C00044600EB070BD4468EBE7012940D8012279
:1045D000104210D0441021000AA820F0C7FC0C9B08
:1045E000002122001800019325F079FD0AA91D4839
:1045F000FFF722FCE5E703A922F0AEFA002805D078
:10460000049A0399174820F00BFADAE7286806F0B5
:10461000B3FF1021002800D0411006A820F095FC1F
:104620000AA928680BF0F8FE040020000BF056FFE2
:10463000002801D106A9DAE706F084FEFF2802D996
:1046400009480CF01DFBC1B206A820F0DEFCECE727
:1046500006480CF0D9FC0648B3E7C046070080FFC7
:10466000A4C90200FCB40200011D03001A1D0300CE
:10467000ECB4020073B50400080001A91600FFF7AE
:104680004BFC0500042E06D10300019A07492000C7
:1046900020F022FF73BD0649200020F05CFE0123BC
:1046A000019A29002000FFF763FBF3E76021030074
:1046B0009E3203000A001B4B73B51A4005000C0024
:1046C0000340062B0CD1062A04D1441A60426041F3
:1046D000C0B212E0C00820F05FFB0600606805E091
:1046E0004668062AFAD1C80820F056FB002E05D0ED
:1046F000002803D0B04201D0002076BD69462800D2
:10470000FFF70AFC01A905002000FFF705FC009A4D
:10471000019B01009A42EFD1280025F0B5FC4442EC
:104720006041D5E7070080FF084B07B50340062B23
:1047300008D0830704D10268054B92699A4201D0E0
:10474000FFF7FCFA01A9FFF7E7FB0EBD070080FFAA
:10475000F14C00000A4B13B503400C00062B08D0A7
:10476000830704D10268074B92699A4201D0FFF790
:10477000E5FA01A9FFF7D0FB019B236016BDC046F7
:10478000070080FFF14C0000F0B59BB00B90059145
:10479000089210210EAA12A8099302F02BF9059B8A
:1047A000089A934208D30B9A12AB13CB13C21B681F
:1047B00013600B981BB0F0BD059B19785D1C7D291B
:1047C0000ED1089BAB4208D9059B59787D2904D1AD
:1047D00012A820F01AFC059507E0BC480CF050FA2E
:1047E0007B2906D012A820F010FC059B013305930D
:1047F000D5E7089BAB4216D9059B59787B29E7D0B2
:104800002B007D2903D0212901D03A290DD1002583
:104810002E001A78212A11D0002206921AE0089A56
:1048200001339A4201D1AA48D8E71A787D2A03D0E9
:10483000212A01D03A2AF2D11E00EAE708995A1C2F
:1048400091421CD95A780692723A012A17D802333B
:104850009942E8D900211A7805913A2A1FD15A1CA9
:104860005B7805927D2B1DD1089B059A9342DAD97E
:104870000027059B1B787D2B17D09648AEE79648FE
:10488000ACE719787B2905D10132013308998B42B5
:10489000F7D3C8E77D29F8D1013A002AF5D1059F61
:1048A0000593E6E7059B0122F0E7002D48D00023A1
:1048B0002878169304F026FA00283DD0099B1B683F
:1048C0000793002B01DD854888E716AA31002800F0
:1048D00020F06FF8209A169B013A04009A4203D800
:1048E0007F49804822F07DFD219A01339B009D582D
:1048F0000122099B52421A60B44231D27A480CF02C
:10490000B1FB0134B44204D223782E2B01D05B2BAF
:10491000F7D1611B01222800FFF7C4FA002205002D
:10492000010022980BF0E0F9002807D129006F4818
:104930001FF04AFA0CF05CFC2C00E3E74568DBE76B
:10494000099B1B68002B01DA694847E7209A013A66
:104950009342C5D2013321999A005558099A1360A0
:10496000002F00D0A6E1069B3C00002B04D0069C43
:10497000733C631E9C41E4B210AA102116A802F0F9
:1049800039F82900220010A806F00CFC16A9594895
:10499000FFF752FA01235B4205000D931093002F9D
:1049A00000D18FE00CF064FC229B059A0293219BBE
:1049B00039000193209B16A80093099BFFF7E4FEA2
:1049C00016A820F010FB0026179B0400C3180A93BA
:1049D00003780693B34208D0474F1900380025F0FA
:1049E0008CFBB04200D16EE1013423782B2B4ED0EA
:1049F00000272D2B02D0202B01D10437013423783E
:104A0000232B02D1133B1F4301342378302B07D1D2
:104A1000069B002B01D13D330693002E00D130368A
:104A20000DAA0A9920001FF0C4FF037807902C2BD1
:104A300004D10C3B1F43030001330793079B1B78F2
:104A40002E2B06D1079810AA01300A991FF0B1FF4A
:104A50000790079B1C78002C1BD02100274825F0CD
:104A60004CFB002803D0079B5B78002B11D0244817
:104A7000B4E63100380025F040FB002804D03300B4
:104A80000234069E0693B0E706900600ADE70227C3
:104A9000B4E716A820F07BFA069B002B08D128006B
:104AA000FFF728F93C230693002801D00233069330
:104AB000002E00D1203606231F4229D0732C23D18B
:104AC00010488BE63C003E00E9E7C0462E1E03007E
:104AD0006F1E0300871E0300561E0300AB1E03005B
:104AE000F51E0300A4AE02000E1F0300E0AE02009C
:104AF0002B1F0300A4C90200751F03007A1F0300C7
:104B00008A1F0300A31F0300632C01D1714865E6CF
:104B1000069B3D2B1FD05E2B1FD03C2B01D13B3B76
:104B20001F432800FFF7CAF800282DD0632C50D06F
:104B300026D8472C13D8452C26D2002C40D0252C23
:104B400022D0280021F0F1FF2200030062496348CF
:104B5000FDF7B6FCEEE64023E2E78023E0E7582CC1
:104B600053D0622CEDD1002303930D9B02220293BC
:104B700061230196009729000EA803F07DF834E622
:104B8000672C17D8652C1BD32800FFF7B3F8002833
:104B90006CD0002C56D06E2C54D0472C3FD8452CCE
:104BA00041D2252C50D0280021F0BFFF2200030065
:104BB0004B49CCE76F2C1AD0782C26D06E2CC0D164
:104BC000002303930D9B01960293009761230A2211
:104BD000D1E7280006F0B6FB0D9B16A9087001224C
:104BE00001933B0000960EA802F0EAFFFDE5FB06EC
:104BF00002D580239B001F43002303930D9B019646
:104C00000293009761230822B5E700222300039254
:104C10000D9A173B0292019600971022ABE72300F2
:104C2000653B022BBFD8280006F0F0FB109B22004A
:104C300002930D9B011C01933B0000960EA820F0EF
:104C400006FCD2E56724EEE72800802406F0DEFBB0
:104C5000244917F09BFB109B640002930D9B3C437F
:104C60000193011C009623006622E7E7069B3D2B7B
:104C700001D11D48B2E5002C01D0732C13D116A927
:104C80002800FFF767FD109B0100169A002B00DA41
:104C90001092109B9A4200D916930D9B0096019397
:104CA000169A3B009FE7280021F03FFF22000300F7
:104CB0000E494CE7069B002B00D058E601235B42CF
:104CC0000D9310936EE66678002E00D0D1E606961E
:104CD0008BE6C046CF1F03000220030028B202006B
:104CE000332003000000C842672003009C2003001B
:104CF000F0B5A1B005000C000D920A2800D0E4E147
:104D00000DAB0F930123073D1093059215403CD145
:104D10001368BF4A934206D10FAA10A905981EF046
:104D200021FD059502E0BB4A9342FAD1109B11A9DF
:104D300007930F9B20000893FFF7EEF800230990DC
:104D40000A93A30705D1B44A23689B1A5A425A41D1
:104D50000A9214AA102118A801F04CFE119A0027FB
:104D60009446099B099C63440493049BA3420FD877
:104D7000079BAA48BB4229D10A9BA948002B00D017
:104D8000A54818A9FFF758F8BAE100230593CDE725
:104D90002178252904D018A820F037F90134E4E758
:104DA000049B661CB34202D89E480BF069FF6178F1
:104DB000252904D118A820F028F93400EEE70025B1
:104DC000282915D1059BAB4202D197480CF01CF95C
:104DD000A01C06003378292B23D1311A0122FFF7BA
:104DE00061F8010005980AF0F7FE01270500013679
:104DF0000023340040220026302104200B9320336E
:104E00000693049BA34213D800231293049BA3424E
:104E100031D923782A2B70D1079BBB4221D88348F4
:104E2000D4E7049BB34201D88148BEE70136D1E7FD
:104E300023782D2B03D12C3B1E430134E1E72B2B90
:104E400001D1293BF8E7202B01D10643F5E7232BBD
:104E500004D0302BD8D116430691EEE710230B93E4
:104E6000EBE77B1C0C93089BBF00F85806F06AFA2E
:104E70000C9F1290013401235B421393049BA342C5
:104E800092D923782E2B17D1049B601C83428BD997
:104E900063782A2B38D1079BBB42C0D97B1C0C936B
:104EA000089BBF00F85806F04DFA0C9F139002348F
:104EB000049BA34200D877E7002D06D1079BBB4295
:104EC000ADD9089ABB009D5801372278672A45D88A
:104ED000652A00D3B8E0582A5DD01DD81300453BA1
:104EE000022B00D8B0E0099B5249E41A0094130049
:104EF0005148FDF7E5FA0CF07BF9200012AA04995D
:104F00001FF057FD0400B6E7002313AA049913937A
:104F10001FF04FFD0400CBE7632A49D0642AE2D199
:104F200003222B001340022B0AD1444B2B40062BAB
:104F300006D0FF23DB05E818904307F091FC05003D
:104F4000139B0A220393129B00960293069B0193E4
:104F50006123290014A802F08FFE1FE7732A16D8D8
:104F6000722A00D380E0692ADAD06F2ABBD10B9B6A
:104F7000002B02D084239B001E43139B00960393B7
:104F8000129B08220293069B01936123E1E7752A95
:104F9000C6D0782AA7D11300139A173B0392129A0E
:104FA0000292069A01920B9A164300961022D0E7BD
:104FB000224B2B40062B05D0AB0716D1184B2A6885
:104FC0009A4212D11CA92800FFF7C4FB1C9A0100C9
:104FD000012A01D01A48F9E6129B0193202300937D
:104FE000330014A802F0ECFDD8E62800FEF766FEB8
:104FF00000280BD0280006F0A5F9129B1CA9087008
:1050000001932023012200933300EAE70D48DDE6F7
:1050100094A802001CDD0200FCB40200F91D03008C
:10502000A4C90200341D0300461D0300731D0300C4
:105030005D1D0300C41D030028B20200070080FFAD
:105040009A1D0300B31D0300280006F0DFF9139B2F
:1050500022780293129B011C0193069B14A80093D3
:10506000330020F0F4F999E616AA10211CA801F0EB
:10507000C1FC23781A00723A51424A41D2B2722BD3
:1050800009D00A9B002B06D0AB0704D1594B2968E5
:10509000994200D10422290016A806F083F8139A39
:1050A0001D9B002A00DA1393139A9A4200D91A0022
:1050B000129B1E990193202314A80093330002F041
:1050C0007FFD1CA81FF063FF68E6080006F052F899
:1050D00016A907002000FEF71FFF0590072D22D11B
:1050E00018A90D9806F06CF903000020834207D040
:1050F0001899814206DC404B40489F4200D10E2067
:1051000021B0F0BD169B1CA859431FF02FFF1E9B1A
:105110000121049300930598189B169A21F043FDF2
:105120001CA938002EE60D9806F024F8B8420FD1DD
:105130001CA90D98FEF7F0FE1C9E04901D2D17D89B
:10514000192D4ED2052D21D0122D1FD00020D7E7CA
:10515000284B0D989F4209D101221CA921F0FCFC8B
:105160000028CDD01C9B1D9E0493E7E7FEF7E6FDCB
:105170001F2DEBD10123049A009316993300059853
:105180001FF02FFC00282AD01D48B9E7169B002BE2
:1051900007D10D9805F0EEFFB84202D10D9C20001A
:1051A000AEE7002EFBD0169B1CA8F1181FF0DEFE08
:1051B0001E9B169A05991800069324F074FF169A00
:1051C0001E9B94460593634418003200049924F012
:1051D0006AFF1CA93800FEF72FFE0400DFE709482C
:1051E0008EE70096049B169A0599280021F011FD80
:1051F000C8E7C046FCB40200A4C90200ECB4020037
:1052000060C9020058C90200F0B5050087B00868FF
:105210000C0005F0AFFF0090012D28D96668022D23
:1052200026D0A06806F08EF80500002108001EF0C8
:10523000D7FE04A901902068FEF76EFE049B0400CF
:10524000C7183E4B9E4241D1BC422AD2207803F07F
:1052500041FD00280FD1002D0FD121003A1B0098ED
:105260001FF0DEFB01000198FEF708F919E0334E4C
:1052700001256D42D9E70134E6E72600307803F0D6
:1052800029FD002802D10136B742F7D82100321B90
:1052900000981FF0C5FB01000198FEF7EFF8B74238
:1052A00009D8019807B0F0BD0136B74203D1002DEF
:1052B000F7DD013D06E0307803F00CFD0028F3D166
:1052C000002DF6DCBE42ECD23400C4E7300005F01D
:1052D00051FF009B984202D03000FEF72FFD05A938
:1052E0003000FFF737FA059B0390002B13D11448C9
:1052F0000BF0C6FC3E002100321B00981FF090FB13
:1053000001000198FEF7BAF8BE42CAD2059BF41814
:10531000002D00DD013D2600059B0293002DE9D004
:10532000029BF3189F42E5D3029A0399300024F0C0
:10533000ABFE0028DFD00136F0E7C0469CC5020076
:10534000CE200300F0B507008BB00D00022807D86F
:1053500029003800FFF758FF050028000BB0F0BD0A
:10536000086805F007FF08A9049028686E68FEF732
:10537000D3FD0190A86805F0E5FF041EE8DB431C9F
:105380001800002105931EF02BFE2F4B05009E42B6
:1053900002D12E480BF066FE09A93000FFF7DAF9BA
:1053A000099B0690002B02D129480BF069FC089A52
:1053B000019B944663440293A3000393099F029BBD
:1053C000DE1B002C0BD0019BB34208D83A00069993
:1053D000300024F059FE002821D0013EF1E7EB68AF
:1053E000A6009F19019A029B01999A1A04981FF02E
:1053F00017FB3860002CB0D0059B1C1BEB68A70086
:1054000099193A00180024F057FE6B6800211A1B06
:10541000EB689200D81924F062FEAC609DE7039A15
:10542000EB68944663440793029BF1199A1BD21BC5
:1054300004981FF0F5FA079B013C1860039B029645
:10544000043B0393BAE7C0469CC5020065210300F4
:10545000CE20030070B50C008AB0050004A92068B6
:105460001600FEF759FD00230593049B0100C218A6
:10547000029605AB06A801940095FFF785F906A9E9
:105480000248FEF7D9FC0AB070BDC046A4C90200AC
:10549000F0B58BB00600080011001A0010AB1F78A1
:1054A000314B05AD01950093052306F017FD9120C2
:1054B00000011EF0F2FB2D4B04A91860059B47600C
:1054C00043706B682A4F0370AB6804008370EB680D
:1054D000C3702B7C30003B60FFF73CF90025254B67
:1054E00003900C201D601EF0D8FB234B06000360C8
:1054F0000DF094FCB0600DF091FC204B204A186038
:10550000204B11001D70204B70601D701F4B300030
:105510001D602B000DF056FB2000049A03991EF02D
:1055200074FC2000FDF7EEFE0400A84207D10DF048
:105530004FFA0E4B1C60164B18680BF0A1FB0122B2
:10554000144B1A700DF064FC0028FBD1124B9433FD
:1055500018603B68002B04D00C4B104819681CF0F5
:10556000C7FA07480BB0F0BD18B70200142F00208F
:10557000400100204C01002064B7020048010020D7
:105580009CC50200B82D0020B62D0020500100203F
:1055900004000020B72D0020802E00207B21030076
:1055A00000220D4910B50B78DBB2934210D10B4AA3
:1055B0001478002C02D001240C701370084B1B7857
:1055C000002B07D0074A136820331360064B1A6874
:1055D000100010BD8268FBE7B62D0020B72D00201B
:1055E000B82D00204C0100204801002073B501A90E
:1055F000FFF7B0F8019B06001748502B17D8802002
:1056000040001EF04AFB154C05002300943318603F
:105610000023019A9A420CD15B232800AB5407F077
:10562000FDFA2B00002808D1943420600C480BF0C0
:1056300027FBF15CE9540133ECE75A1B0133591E97
:1056400009789B29F9D1290006481FF0E9F90023C0
:105650009434236076BDC0468A210300802E00204A
:1056600098210300A4C90200D2235B005843134AC7
:10567000F0B51368000C834206D9114C236801333E
:1056800023601368203B13601F23050001270D4E84
:105690009D431468A5420BD803401A1D202A00D947
:1056A0002022094C2468934204D3084B1860F0BDB3
:1056B0003770EEE7E51829710133F4E74C0100205B
:1056C00050010020B82D0020480100205401002086
:1056D0000023F0B52F4E93B0050006A814003360E8
:1056E000019101270BF05EFD2740031E35D1E20634
:1056F0002DD56A68A96811201EF009F905002E68E9
:1057000029000125019A03A803F062FCA3082B409D
:105710000022310003A805F093FB040003200CF0E5
:10572000FBFB200021F012FE012040420CF0F4FBB4
:105730002C000BF055FD002F24D0290016480DF049
:10574000B9FF3C00012114480DF0B4FF1AE0A30694
:10575000D5D528001EF08EFAD0E7012040420CF08B
:10576000DBFB002F03D001210B480DF0A3FF0798AE
:1057700005F000FD0949FCF707F9041E05D034685F
:10578000002FDFD1200013B0F0BD0799044805F0C9
:105790002DFDF5E758010020AE21030074B1020091
:1057A0006CC8020010B586B0202102A880241FF02A
:1057B000CCFB64001E4822F083F900231D480393AC
:1057C00022F07EF90DF05EFF0128F3D002280BD104
:1057D000194822F075F902A81FF0D9FB0122002018
:1057E000164B1A7006B010BD032802D10023039394
:1057F000E8E7042804D0C1B202A81FF006FCE1E7E4
:105800000F4822F05DF9039B0193002B08D10A4851
:1058100022F056F902A81FF0BAFB80204000E1E711
:105820001122012102A8FFF753FF2042C5D0D9E77A
:105830006D220300EB1903009F440300DC000020ED
:10584000401A030030B587B0202102A880251FF040
:105850007CFB6D00374822F033F9374822F030F9ED
:105860000024364902A8039421F080FB01280AD1C4
:10587000334822F025F902A81FF089FB2000314BA4
:105880001C7007B030BD022803D12D4822F018F952
:10589000E0E7032801D12A48E0E7042808D1284896
:1058A00022F00EF902A81FF072FB80204000E8E70A
:1058B000052827D1244822F003F903940DF0E2FED5
:1058C0006B46C1B2DC1D21700329E4D004290AD142
:1058D0001B4822F0F5F80121162202A8FFF7F8FE76
:1058E0002842BDD0CDE702A81FF08FFB23780D2BF7
:1058F00003D1164822F0E4F8E0E7012120000DF082
:10590000D9FEDBE7039B002BAAD002A81FF06BFB9C
:1059100002F04CFC00280BD00A2102A81FF075FBF6
:105920000B4902A821F022FB0328B4D00428ECD1B3
:105930000021D1E7B0210300062203002C2203003E
:105940009F440300DC000020312203006122030099
:1059500068220300F0B58FB006924268099394461E
:105960000368040002939B6804300093634403605F
:105970000E001FF0C0F9059060681FF0D2F9431CBB
:1059800063600378A24A0193831C6360437800211B
:105990000093C31C63608378B5000393031D6360A9
:1059A000C3782000049323001033A360059B1430B8
:1059B0009A1893000793C318E360079B0C331A00EF
:1059C000089324F08CFB099B009A5B190B93059BB1
:1059D0009B1A039A0A939D1A2F1D009ABF00E7197C
:1059E0000123B24264D2019A1A4207D13300009ACD
:1059F00088498948FCF764FD0BF0FAFB009B0335EE
:105A00009900099BAD005918009B6519F01AFAF727
:105A1000E3FF009E043F68600022964200D070E0E1
:105A2000069B002B03D1019B1B0700D4D6E0022369
:105A30000026019A1A400992B24204D0069821F039
:105A400063FB060038600027029B0B9DDB68089310
:105A5000069B9F425ED10A9B029805339B00E1188A
:105A60000A00049D0C30002D00D080E0049A9200C2
:105A70008918079A2032A2188A4200D980E0143B84
:105A80000693009B089A9B00D3180793039B9D42A3
:105A900000D27FE065680DA80D951FF02CF928183D
:105AA0000578461CFF2D00D0A7E066600FB0F0BD62
:105AB000019A1A4205D00335AD00584B6519043FD1
:105AC0006B60069B002BA7D1019B1B07A4D4009BF6
:105AD000049A9A1AB24212D8009A049B991A320078
